:020ECE006D2F86
:100ED800090083160313FF3085008601880102305C
:100EE8009F00831285018601880181309F00A1013E
:100EF800A001A401A201EC2791309F00D9271F155A
:100F08001F19842F03101E0CA00064302002031840
:100F18008E2F902F6430A00089309F00D9271F158D
:100F28001F19942F1E08A2006430220203189D2F57
:100F38009F2F6430A000A42721088800E727802F6E
:100F48002008210203190800031CAB2FB02FB72774
:100F5800A10A210888000800B527A10321088800F4
:100F68000800A40AB92FA403B92F24080339A5003F
:100F78002508003A0319C92F2508013A0319CD2F6E
:100F88002508023A0319D12FD52F09308600DE270C
:100F980008000C308600DE27080006308600DE27B1
:100FA800080003308600DE2708003230A600A60BB2
:100FB800DB2F08003230A6003230A700A70BE22F43
:100FC800A60BE02F08003230A600A60BE92F080078
:100FD800FF308800C830A600C830A700A70BF22F42
:100FE800A60BF02F8801C830A600C830A700A70BB1
:080FF800FB2FA60BF92F0800E6
:02400E00323F3F
:00000001FF
