:100D18008D2E031383160530850000308600D830E9
:100D28008700013088000030890003138312850191
:100D38008601870188018901A001A101B201AD26C0
:100D4800FA265827B6262718D326271404277327E8
:100D5800A62E0313831602309F000313831241301B
:100D68009F000800031383129F121F129F11000097
:100D7800000000001F151F19BF2E1E08A3001E0823
:100D8800A4002308033C0318CB2E0314CC2E031015
:100D980003180800A7016430A100A201080003138A
:100DA80083129F121F169F110000000000001F15DC
:100DB8001F19DC2E1E08A5001E08A600AE01AF01F3
:100DC8002508AE000310AE0C2E08AF000310AF0CC0
:100DD8000310AF0C2F08AE022E08A100A2012108B3
:100DE8005F3C0318F92E6430A10008000313831236
:100DF800B2010230B20037270313831286000800BD
:100E08002008210203190800031C152F0B2F0A3094
:100E1800AE0021274D27AE0B0D2F03138312A00A16
:100E280008000A30AE002C274D2703138312AE0B9F
:100E3800172F03138312A003080003138312B20AA7
:100E480032080339B20037270313831286000800DB
:100E580003138312B20332080339B200372703138E
:100E6800831286000800031383123208003A03191C
:100E78004B2F3208013A0319492F3208023A031955
:100E8800472F0130080002300800043008000830FD
:100E98000800031383122030B5002030B600B60BCB
:100EA800532FB50B512F0800F527F527031383128D
:100EB800091030308800B627F527B627FB27B62754
:100EC800FB2720308800B627FB272830A8270C30BE
:100ED800A8270630A8270130A827F5270800803062
:100EE800A8272B30AA272908C0272E30AA272A0886
:100EF800BC27DF30AA274330AA272030AA27203072
:100F0800AA272030AA272B08D2276830AA275030D2
:100F1800AA276130AA27C030A8274C30AA273A3020
:100F2800AA272308D2274C30AA277530AA27783059
:100F3800AA272030AA272030AA272008D227253020
:100F4800AA272030AA2708000910AC2F0914AC2FB3
:100F5800AE00F0398800B6272E0EF0398800B62783
:100F6800FB27080089140000000000008910080011
:100F78000F39303EAA270800B1000030B000310810
:100F8800093C0318CB2F0A30B102B00AC32F30082E
:100F9800303EAA273108303EAA270800B100AE012A
:100FA8003108633C0318DC2F6430B102AE0AD42F39
:100FB8002E08031DE22F3030AA27E52F2E08303ED9
:100FC800AA27AE013108093C0318EE2F0A30B102F6
:100FD800AE0AE62F2E08303EAA273108303EAA274F
:100FE8000800FA30B0000000B00BF72F08000A30F4
:080FF800B000B00BFD2F080052
:02400E00713F00
:00000001FF
